:10000000A2C00000BBC00000B9C00000B7C0000023
:10001000B5C00000B3C00000B1C00000AFC0000018
:10002000ADC00000ABC00000A9C0000007C60000C2
:1000300064C60000A3C00000A1C000009FC0000073
:100040009DC000009BC0000099C0000097C0000048
:1000500095C0000093C0000091C000008FC0000058
:100060008DC000008BC0000089C0000087C0000068
:1000700085C0000000010000AB001200020000BDBE
:10008000002200220000DF003F00210000CF000915
:10009000000300001E01040103090422010E0203F3
:1000A0000904320112000001C10600120100020021
:1000B000000020C0167C0400010102000109022298
:1000C00000010100C0320904000001030101000920
:1000D0002111010001223F000705830308000105EB
:1000E000010906A10175019508050719E029E71521
:1000F00000250181029501750881039505750105AB
:10010000081901290591029501750391039506755A
:1001100008150025680507190029688100C0040337
:1001200009040E03690062006E00540065006F0050
:100130000000120343006100740062006F00610060
:1001400072006400000011241FBECFEFD2E0DEBFBA
:10015000CDBF12E0A0E0B1E0EEEEFFE002C00590FE
:100160000D92A233B107D9F712E0A2E3B2E001C0C9
:100170001D92A838B107E1F7E7D437C741CF8AE429
:1001800084B980E287B984E08AB98FEF85B988B9EC
:100190008BB9089580E88093610010926100EFDFD1
:1001A000569A3E9A519A469A599880910101811126
:1001B0005E98ECE4F2E0119282E0E838F807D9F7B3
:1001C000DFD4F2D48823E9F35E9A80910101811192
:1001D00046988091480280934002089520914802F9
:1001E0002270209340028091090190910A012223FC
:1001F000D9F021E08638920781F18A54914039F490
:1002000086E891E090933D0280933C0206C086E828
:1002100091E090930A0180930901469A809101012F
:100220008823D9F0599A089521E0853F9207A9F0D3
:100230008A54914039F485EF91E090933D02809388
:100240003C0206C085EF91E090930A01809309017A
:1002500059988091010181114698089580910B0170
:10026000823091F488E080934102109242029FD440
:100270002FEF80E792E0215080409040E1F700C0EE
:10028000000068E08CE211C084E08093410210928B
:1002900042028DD42FEF80E792E0215080409040C1
:1002A000E1F700C0000066E080E0BBC48C3308F5D5
:1002B00090E0FC01E45BFD4F4081413039F4FC01EA
:1002C000E65BFE4F80811816ACF013C02091090147
:1002D00030910A0151E02A34350731F0423021F4DF
:1002E000FC01EA57FE4F03C0F901E80FF91F8081B6
:1002F000089580E008958091320290913302009732
:1003000039F1209134023091350236952795369592
:1003100027958217930710F401963CC081E090E086
:10032000909333028093320280913B02882309F438
:1003300067C080913E028093410280910001B6DF48
:100340008093420234D481115BC0109242022FC4C8
:100350002091360230913702809138029091390213
:1003600021153105E1F040917302442319F045E075
:1003700050E002C04EE150E0840F951F2817390766
:1003800038F42F5F3F4F30933702209336020895A1
:1003900081E090E09093330280933202089520919F
:1003A00034023091350221153105D9F0C296281753
:1003B000390738F42F5F3F4F3093350220933402D2
:1003C00008958FEF8093000110923502109234024D
:1003D00010923902109238021092370210923602AF
:1003E0000895009769F08A3F910530F40196909343
:1003F000390280933802089510923902109238021F
:1004000008950F931F93CF93DF93C2E0D1E002E4EE
:1004100012E089914BDFF80181938F01F1E0C83040
:10042000DF07B9F780913E0280934102DF91CF91BF
:100430001F910F91BCC3CF93DF93D82F282F30E0AB
:10044000D901A45BBD4FCC91C13021F4F901E65B29
:10045000FE4F14C0E0910901F0910A01E20FF31F71
:1004600090815E9AC63059F440913C0250913D0211
:100470004115510521F0FA01E20FF31F90811C9202
:100480009D3608F4A0C09D3709F414C1963709F4CD
:1004900011C19D3609F03FC080913E02C53031F454
:1004A0008E7F80933E02DF91CF91ABCF8D7F809383
:1004B0003E02A7DF809100018D1381C08091380238
:1004C000909139020197C19708F079C0C43009F4BE
:1004D00076C08091090190910A0121E08638920747
:1004E00009F46DC08A54914039F486E891E0909304
:1004F0003D0280933C0206C086E891E090930A0199
:1005000080930901ABDE469A80910101882309F4AA
:1005100056C0599A54C09E36A9F580913E028F7DEF
:1005200080933E026EDF809100018D1348C0809160
:100530003802909139020197C19708F040C0C43049
:1005400009F43DC08091090190910A0121E0853FA5
:100550009207A9F18A54914039F485EF91E0909384
:100560003D0280933C0206C085EF91E090930A0122
:100570008093090173DE5998809101018823F9F075
:1005800046981DC0973709F09CC080913E028D7F30
:1005900080933E0236DF809100018D1310C0809160
:1005A0003802909139020197C19748F4C23039F06E
:1005B00080913E02811103C060E08CE232D38FEF64
:1005C0008093000166C0953608F440C020910B016D
:1005D00080913E02223039F4953611F4877F20C095
:1005E000993649F402C09C3611F48F7719C09536BC
:1005F00021F48E7F15C09C36C1F3963611F48D7FA1
:100600000FC0973611F48B7F0BC0983639F39936AB
:1006100011F48F7E05C09A3611F48F7D01C08F7B57
:1006200080933E02EEDE1092390210923802109250
:100630003702109236021092350210923402109254
:10064000330210923202109200013BC0E2E0F1E06E
:1006500080E091919D1719F08F5F8630D1F7863039
:1006600041F0E82FF0E0EE5FFE4F918190838F5FC5
:10067000F6CFC7DE809100018D130BC010923702B8
:100680001092360281E090E090933502809334021C
:100690000CC0109239021092380210923702109258
:1006A00036021092350210923402109233021092E8
:1006B000320207C0C33009F42ECF80913E028B7FF7
:1006C000F0CEDF91CF910895469A59988091090113
:1006D00090910A018658914039F080913C029091A6
:1006E0003D028658914009F4599A809109019091F0
:1006F0000A01855F914039F080913C0290913D0262
:10070000855F914009F4469808959091E400980F10
:100710008091E4009813FCCF0895469A599886E991
:1007200090E0F3DF4698599A84E690E0EEDF469A2F
:100730005998CACFCF93C82F90913E029D7D282F04
:1007400030E080917302811104C0992321F082E08E
:1007500003C081E001C08FEFF901E45BFD4F8083AE
:10076000C73229F480910101813009F45E988081BB
:10077000813021F4D901A65BBE4F06C0A0910901CA
:10078000B0910A01A20FB31F8C91811120C0A091DA
:100790000901B0910A01A20FB31F8C91992311F0A6
:1007A00092E001C09FEF9083811111C040913C0203
:1007B00050913D024115510551F090913E02911129
:1007C00006C0DA01A20FB31F8C9196E0908390913E
:1007D0003A02992321F08A3709F046C1B6C08D3616
:1007E00008F4D2C08D37B1F48081813019F464E00F
:1007F0008BE272C080913E02811104C084E080933C
:100800003E0202C083E0808380913E0280934102D9
:100810008BE211C08637E1F480913E02811104C061
:1008200084E080933E0202C083E0808380913E0298
:100830008093410288E280934202B9D12FEF80E792
:1008400092E0215080409040E1F700C00000ECC0F1
:100850008E3759F58081813009F0E7C080913E02E2
:10086000827209F4E2C020913C0230913D022115D0
:10087000310551F030930A012093090125DF1092D0
:100880003D0210923C02D1C08091090190910A0171
:1008900090933D0280933C028EE091E090930A0198
:1008A000809309014698599AC0C08C37B9F4808169
:1008B000813079F480913E02827259F080910B016F
:1008C0008F5F80930B01833008F4AFC010920B014F
:1008D000ACC060913E028CE2A4D1A7C08D3689F4F1
:1008E00080913E02982F927221F095E09083816072
:1008F00005C0882311F094E09083826080933E02CB
:1009000093C08E3621F480913E028062F7CF8B3700
:1009100049F481E090913B02911180E080933B0289
:10092000FCDE83C0873719F480913E02E6CF8F3614
:1009300009F47BC08A3789F481E080933A025E9A99
:10094000469A599868E08FE0C7CF10923A0280919A
:100950000101882309F469C015C0893709F065C011
:1009600080913E02827209F460C080910101882367
:1009700031F0109201015E9A469A599856C081E072
:1009800080930101A1DE51C08536C0F120910B0199
:1009900090913E02223039F4853611F4986020C0DF
:1009A000893649F402C08C3611F4906819C0853636
:1009B00021F4916015C08C36C1F3863611F4926033
:1009C0000FC0873611F494600BC0883639F389362E
:1009D00011F4906105C08A3611F4906201C09064F0
:1009E00090933E020EDD109239021092380210925E
:1009F0003502109234021092000117C0809100015C
:100A00008C1306C080913402909135020A9768F0E9
:100A1000E7E0F1E0A8E0B1E082918E9321E0E230DE
:100A2000F207D1F7C0930201ECDC809100018C1336
:100A300007C081E090E0909337028093360210C0A7
:100A4000C093000181E090E09093390280933802D6
:100A50001092370210923602109235021092340230
:100A60001092330210923202CF9108957F928F92AA
:100A70009F92AF92BF92CF92DF92EF92FF920F932D
:100A80001F93CF93DF937BEEE72E71E0F72E06EEF8
:100A900011E0812CD701CD91DD917D01F80191907C
:100AA0008F01992D9095888189238883F5E0FA95A7
:100AB000F1F700005EECA52E51E0B52E62ECC62EDB
:100AC00061E0D62E712C872D880DD501ED91FD9119
:100AD0005D01D6019D916D0120819223282F30E088
:100AE000F901E45BFD4F911105C09081911105C0A2
:100AF00021DE03C0908191119EDCB5E07B0EECE31A
:100B00007E12E1CF88818929888383948B12C2CF9A
:100B10008091480282709091400298135FDBEBDB7A
:100B20008FE19EE40197F1F700C00000DF91CF91C3
:100B30001F910F91FF90EF90DF90CF90BF90AF90FB
:100B40009F908F907F90089584B7877F84BF88E1BE
:100B50000FB6F89480936000109260000FBE90E092
:100B600080E80FB6F89480936100909361000FBE07
:100B700011DB7CDFFECF8091E80080FFFCCF089581
:100B800080EA8093D80086E089BD09B400FEFDCFDD
:100B900080E88093D8001092E000109249028CE027
:100BA0008093E2007894089580914902089580919D
:100BB0004902882391F18FB7F89493E09093E9006C
:100BC0009091E4009E5C23E03091E80035FD0EC07A
:100BD0008FBF80914902882301F18091E400891739
:100BE000F1F08FB7F8942093E900EECF9091410295
:100BF0009093F1001092F100E2E4F2E09191909371
:100C0000F10092E0E834F907C9F79AE39093E8001D
:100C100010924A028FBF80E008958FEF08958FEF02
:100C200008956093410280934202C1DF882329F432
:100C30001092410210924202BACF08951F920F9271
:100C40000FB60F9211242F938F939F93EF93FF93DF
:100C50008091E1001092E10083FF0FC01092E90043
:100C600091E09093EB001092EC0092E29093ED00F3
:100C700098E09093F0001092490282FF34C0809176
:100C80004902882381F120910C01222361F1809196
:100C90004B028F5F80934B0290E0837090700097BF
:100CA00011F583E08093E9008091E80085FF1BC087
:100CB00080914A028F5F80934A028217A1F41092BA
:100CC0004A02809141028093F1001092F100E2E427
:100CD000F2E081918093F10082E0E834F807C9F7EF
:100CE0008AE38093E800FF91EF919F918F912F917C
:100CF0000F900FBE0F901F9018951F920F920FB676
:100D00000F921124CF92DF92EF92FF920F931F93D5
:100D10002F933F934F935F936F937F938F939F9303
:100D2000AF93BF93EF93FF93DF93CF930F92CDB722
:100D3000DEB71092E9008091E80083FF39C120916D
:100D4000F1003091F1008091F100C82EDD24409136
:100D5000F100942F80E0C82AD92A0091F10010E018
:100D60004091F100942F80E0082B192B6091F10045
:100D7000A091F10082EF8093E800363009F059C06D
:100D80008BE790E09C0125503040FC01379745915E
:100D900054914C155D05F9F4F901459154914017B2
:100DA0005107C9F42E5F3F4FF901859194912E5F51
:100DB0003F4FF9012491462F50E07A2F60E0462BF7
:100DC000572B4F3F510519F010F04FEF50E04217ED
:100DD00050F4242F08C00796295F3F4FF0E08C3A6B
:100DE0009F0799F6E5C0AEEF4091E80050E0BA01E8
:100DF0006570707061157105B9F342FDDCC0322F6A
:100E0000213208F030E2AC01632F07C0FA014F5FD6
:100E10005F4FE491E093F10061506623B9F7830FCF
:100E2000911D231BA093E8002223F1F63032E1F25A
:100E3000C2C0353049F48EEF8093E8009CDE8C2DE3
:100E400080688093E300B7C0393031F5222309F080
:100E500069C0C09249028EEF8093E80041E085EAC4
:100E600090E04093E900FC010196E491E093EB00EF
:100E7000EE2369F09C012F5F3F4FFC01849180932A
:100E8000EC00C9010196F90124912093ED004F5F18
:100E9000453039F78EE141C0383039F4203809F057
:100EA00041C069DE8091490261C03323A9F42983DE
:100EB00062DE2981223851F40093E9009091EB0021
:100EC00081E095FF80E01092E90001C080E080930E
:100ED000F1001092F10068C0313011F0333011F59B
:100EE000223001F5C114D104E9F4402F4F77842F4B
:100EF00081508430B8F48EEF8093E8004093E9008D
:100F0000333009F455C089E18093EB0081E090E033
:100F100002C0880F991F4A95E2F78093EA00109269
:100F2000EA0049C00115110509F042C0213A09F54E
:100F3000313089F420DE809141028093F1001092DB
:100F4000F100E2E4F2E081918093F10022E0E834E4
:100F5000F207C9F729C0323021F40DDE80910C016F
:100F600005C0333029F507DE80910D018093F10033
:100F70001BC02132E9F4393061F48091E80082FF2E
:100F8000FCCF8091F100809348028BEF8093E800C2
:100F90000BC03A3029F4D0920C0110924A0204C0DE
:100FA0003B3031F4C0920D018EEF8093E80003C016
:100FB00081E28093EB000F90CF91DF91FF91EF9151
:100FC000BF91AF919F918F917F916F915F914F9161
:100FD0003F912F911F910F91FF90EF90DF90CF9055
:0E0FE0000F900FBE0F901F901895F894FFCF42
:100FEE00FF01FFFFFFFFFFFFFFF501017D01352B25
:100FFE00697D291E1404686A1F1A161B1D20080716
:10100E000667211509196522170A052C231C0B11D9
:10101E002C24180D107F250C0E366B26120F373828
:10102E0027133331662D2F34302E462B697D7B3AB4
:10103E006257566D3B595C5F003C5A5D60673D5B85
:10104E005E61653E355554773F79282A7C404A507B
:10105E004C7F415251497E424D4F0000434B4E0052
:10106E007A4429484745352B697D291E1404686D3D
:10107E001F1A161B1D200807066721150919652260
:10108E00170A0577231C0B112C24180D107F250C25
:10109E000E366B26120F3738271333316E2D2F3441
:1010AE00302E080110010420101004208080290029
:1010BE0029002900230026002900230026002300F2
:1010CE00230026002300200440080228002B0025C0
:1010DE000025002500352B697D291E1404686D1F1F
:1010EE001A161B1D200807066721150919652217F8
:1010FE000A0577231C0B112C24180D107F250C0EBE
:10110E00366B26120F3738271333316E2D2F3430AE
:02111E002E00A1
:00000001FF
