:10000000A2C00000BBC00000B9C00000B7C0000023
:10001000B5C00000B3C00000B1C00000AFC0000018
:10002000ADC00000ABC00000A9C0000028C60000A1
:1000300085C60000A3C00000A1C000009FC0000052
:100040009DC000009BC0000099C0000097C0000048
:1000500095C0000093C0000091C000008FC0000058
:100060008DC000008BC0000089C0000087C0000068
:1000700085C0000000010000AB001200020000BDBE
:10008000002200220000DF003F00210000CF000915
:10009000000300001E01040103090422010E0203F3
:1000A0000904320112000001C10600120100020021
:1000B000000020C0167C0400010102000109022298
:1000C00000010100C0320904000001030101000920
:1000D0002111010001223F000705830308000105EB
:1000E000010906A10175019508050719E029E71521
:1000F00000250181029501750881039505750105AB
:10010000081901290591029501750391039506755A
:1001100008150025680507190029688100C0040337
:1001200009040E03690062006E00540065006F0050
:100130000000120343006100740062006F00610060
:1001400072006400000011241FBECFEFD2E0DEBFBA
:10015000CDBF12E0A0E0B1E0E0E3F0E102C0059025
:100160000D92A233B107D9F712E0A2E3B2E001C0C9
:100170001D92A838B107E1F707D558C741CF8AE4E7
:1001800084B980E287B984E08AB98FEF85B988B9EC
:100190008BB9089580914802827080933202209139
:1001A0002402309125028823C1F08FE691E02817C0
:1001B000390749F12B5A314029F490933602809344
:1001C000350204C09093250280932402469A8091C0
:1001D0002D028823C1F0599A089580E091E02817F4
:1001E000390789F02B5A314029F4909336028093D5
:1001F000350204C09093250280932402599880917F
:100200002D028111469808958C3300F5A82FB0E097
:10021000FD01E45BFD4F9081913031F4A555BE4F57
:100220008C911816A4F012C0E0912402F0912502DE
:1002300021E0EB3AF20731F0923021F4A159BE4FA0
:100240008C910895E80FF11D8081089580E0089554
:10025000469A5998209124023091250241E02F3688
:10026000340739F080913502909136028F569140D3
:1002700009F4599A2050314039F08091350290911B
:1002800036028050914009F4469808959091E40018
:10029000980F8091E4009817E1F70895469A5998CD
:1002A00086E990E0F3DF4698599A84E690E0EEDF25
:1002B000469A5998CDCFCF93DF93C0E0D0E0FE01AE
:1002C000EA5DFD4F8081A0DFFE01EE5BFD4F808384
:1002D0002196C630D10599F780913402809341026E
:1002E00087D4DF91CF91089520913F023091400251
:1002F0002115310569F180913D0290913E0296955C
:100300008795969587952817390738F42F5F3F4FC3
:100310003093400220933F02089581E090E0909353
:10032000400280933F0280913702882309F46CC019
:10033000809134028093410280912E0265DF809388
:10034000420256D4882309F05FC01092420250C482
:1003500020913B0230913C022115310501F1409181
:10036000390250913A0280917302882319F48EE188
:1003700090E002C085E090E0840F951F28173907B0
:1003800038F42F5F3F4F30933C0220933B02089597
:1003900081E090E09093400280933F020895209185
:1003A0003D0230913E028091390290913A0221152E
:1003B0003105D9F0C2962817390738F42F5F3F4F1F
:1003C00030933E0220933D0208958FEF80932E02DA
:1003D00010923A021092390210923C0210923B02A3
:1003E00010923E0210923D020895009769F08A3FF4
:1003F000910530F4019690933A0280933902089562
:1004000010923A02109239020895809123028230AC
:1004100091F488E08093410210924202E9D384EF84
:1004200091E020E931E0F9013197F1F70197D9F72F
:100430008CE268E011C084E0809341021092420295
:10044000D7D384EF91E020E931E0F9013197F1F75A
:100450000197D9F780E066E005C40F931F93CF930F
:10046000DF93082FC82FD0E0FE01E45BFD4F108121
:10047000113029F4FE01E555FE4FE08113C0E091F3
:100480002402F0912502EC0FFD1FE0815E9A1630E8
:1004900049F4A0913502B0913602109719F0AC0FD3
:1004A000BD1FEC91C45BDD4F1882ED3608F4A4C08B
:1004B000ED3711F0E63731F4133021F0809134023A
:1004C0008B7F08C0ED3609F03EC0809134021530B4
:1004D00029F48E7F80933402EEDE0EC18D7F8093EF
:1004E0003402E9DE80912E02801709F081C08091EC
:1004F000390290913A02009709F47AC0C29708F045
:1005000077C0143009F474C08091240290912502C0
:100510002FE631E08217930709F46AC08B5A9140A5
:1005200029F4309336022093350204C0309325021B
:10053000209324026ADF469A80912D02882309F4D1
:1005400057C0599A55C0EE36A9F5809134028F7D77
:1005500080933402B0DE80912E02801709F048C0EB
:100560008091390290913A02009709F441C0C297F4
:1005700008F03EC0143009F43BC0809124029091F1
:10058000250220E031E08217930791F18B5A9140C8
:1005900029F4309336022093350204C030932502AB
:1005A0002093240232DF599880912D02882301F193
:1005B00046981EC0E73709F09FC0809134028D7FB6
:1005C0008093340278DE80912E02801789F4809126
:1005D000390290913A02009759F0C29748F41230CC
:1005E00039F080913402882319F48CE260E03AD328
:1005F0008FEF80932E0270C0E53608F449C08091D9
:100600002302823021F4E536E1F0E93611F0EC36D0
:1006100021F4809134028F7725C0E53621F4809152
:1006200034028E7F1FC0E63621F4809134028D7F24
:1006300019C0E73621F4809134028B7F13C0E8366D
:1006400021F480913402877F0DC0E93621F4809136
:1006500034028F7E07C080913402EA3611F48F7D18
:1006600001C08F7B8093340226DE10923A021092F2
:10067000390210923C0210923B0210923E021092FC
:100680003D021092400210923F0210922E0234C09E
:10069000E6E2F2E090E08081801761F09F5F3196A2
:1006A0009630C9F707C0E92FF0E0EA5DFD4F818180
:1006B00080839F5F9630B8F3FEDD80912E02801715
:1006C00059F410923C0210923B0281E090E090932A
:1006D0003E0280933D020CC010923A021092390201
:1006E00010923C0210923B0210923E0210923D0288
:1006F0001092400210923F02DF91CF911F910F9113
:1007000008951F93CF93DF93182F60913402262F03
:100710002D7DC82FD0E080917302882311F091E0E5
:1007200005C0222311F49FEF01C092E0FE01E45BBB
:10073000FD4F9083173229F480912D02813009F406
:100740005E98913021F4FE01E555FE4F06C0E09120
:100750002402F0912502E10FF11DE081EE2319F54D
:10076000412F50E0E0912402F0912502E40FF51FA3
:10077000E081222311F48FEF01C082E09E01245B0F
:100780003D4FD9018C93EE2371F4A0913502B091C5
:100790003602109741F0662331F4A40FB51FEC9197
:1007A00086E0D9018C9380913802882321F0EA37C2
:1007B00009F04BC18AC0ED3608F4DCC0ED3719F5FD
:1007C000FE01E45BFD4F8081813019F48BE264E02F
:1007D0007AC0662321F484E08093340202C083E06F
:1007E000808380913402809341028BE280934202A5
:1007F000FFD184EF91E020E931E0F9013197F1F781
:100800000197D9F702C1E637E1F4662321F484E0C9
:100810008093340204C0C45BDD4F83E08883809101
:1008200034028093410288E280934202E1D184EF56
:1008300091E020E931E0F9013197F1F70197D9F71B
:10084000E4C0EE3751F5C45BDD4F8881813009F09B
:10085000DDC0627209F4DAC08091350290913602EF
:10086000009751F09093250280932402F1DC1092BE
:10087000360210923502CAC080912402909125025E
:10088000909336028093350287EE91E09093250293
:10089000809324024698599AB9C0EC37B1F4C45BEE
:1008A000DD4F8881813071F4862F827259F08091FA
:1008B00023028F5F80932302833008F4A7C0109235
:1008C0002302A4C08CE2CED1A1C0ED3681F4862FE4
:1008D000827231F0C45BDD4F85E0888361601AC0AD
:1008E0006623B9F0C45BDD4F84E0888312C0EE3626
:1008F00011F460620FC0EB3751F490E08091370241
:10090000882309F491E090933702C8DC7FC0E73771
:1009100021F462606093340278C0EF3609F476C047
:10092000EA3799F4882341F01092380280912D0221
:10093000882309F46BC01CC081E0809338025E9A62
:10094000469A59988FE068E0BECFE93709F05EC05B
:10095000627209F45BC080912D02882331F01092FD
:100960002D025E9A469A599851C081E080932D02DB
:100970006FDC4CC0E53698F180912302823021F47F
:10098000E536A1F0E93611F0EC3611F4606819C0D3
:10099000E53611F4616015C0E63611F4626011C0ED
:1009A000E73611F464600DC0E83611F4686009C0E0
:1009B000E93611F4606105C0EA3611F4606201C0E5
:1009C00060646093340277DC10923A02109239022C
:1009D00010923E0210923D0210922E0217C080919A
:1009E0002E02811719F0EAE2F2E007C080913D0281
:1009F00090913E020A97B8F709C0808181833197B0
:100A0000B2E0E532FB07C9F7118355DC80912E0275
:100A1000811739F481E090E090933C0280933B028F
:100A200010C010932E0281E090E090933A028093E0
:100A3000390210923C0210923B0210923E02109238
:100A40003D021092400210923F02DF91CF911F9120
:100A500008959F92AF92BF92CF92DF92EF92FF9252
:100A60000F931F93CF93DF937CE3A72E71E0B72EF4
:100A700066E4C62E61E0D62EEE2455E0952ED50113
:100A8000ED91FC91D6019C91909580818923808382
:100A9000892D8A95F1F7CBE4D1E003E611E0FE2C35
:100AA000E881F9818081F80190818923EF2DF0E0C0
:100AB00041F4E45BFD4F8081882351F48F2D21DECA
:100AC00007C0E45BFD4F8081882311F08F2DC5DCCA
:100AD00022960F5F1F4FF5E0FF0E81E0C336D80767
:100AE000F9F6D501ED91FD915D018081D6019D91D1
:100AF0006D01892B8083E394B5E0EB1609F0BFCF3D
:100B0000809148022091320230E090E08270907033
:100B10002817390709F03EDBE7DB80E29EE4019706
:100B2000F1F7DF91CF911F910F91FF90EF90DF9040
:100B3000CF90BF90AF909F90089580E88093610020
:100B4000109261001CDB569A3E9A519A469A599827
:100B500080912D02882319F4ECE4F2E002C05E9843
:100B6000FBCF119282E0E838F807D9F72AD03DD0C0
:100B70008823E9F35E9A80912D0281114698809135
:100B8000480280933202089584B7877F84BF88E14A
:100B90000FB6F89480936000109260000FBE80E062
:100BA00090E020E80FB6F8942093610080936100F4
:100BB0000FBEC3DF4EDFFECF8091E80080FFFCCF89
:100BC000089580EA8093D80086E089BD09B400FECC
:100BD000FDCF80E88093D8001092E0001092490287
:100BE0008CE08093E2007894089580914902089502
:100BF00080914902882391F18FB7F89493E0909304
:100C0000E9009091E4009E5C23E03091E80035FD1E
:100C10000EC08FBF80914902882301F18091E400CA
:100C20008917F1F08FB7F8942093E900EECF9091F7
:100C300041029093F1001092F100E2E4F2E0919110
:100C40009093F10092E0E834F907C9F79AE39093A2
:100C5000E80010924A028FBF80E008958FEF089558
:100C60008FEF08956093410280934202C1DF882391
:100C700029F41092410210924202BACF08951F92B5
:100C80000F920FB60F9211242F938F939F93EF9390
:100C9000FF938091E1001092E10083FF0FC010925A
:100CA000E90091E09093EB001092EC0092E29093B7
:100CB000ED0098E09093F0001092490282FF34C05A
:100CC00080914902882381F120912F02222361F132
:100CD00080914B028F5F80934B0290E08370907005
:100CE000009711F583E08093E9008091E80085FF8B
:100CF0001BC080914A028F5F80934A028217A1F441
:100D000010924A02809141028093F1001092F1000A
:100D1000E2E4F2E081918093F10082E0E834F807A8
:100D2000C9F78AE38093E800FF91EF919F918F913B
:100D30002F910F900FBE0F901F9018951F920F923A
:100D40000FB60F921124CF92DF92EF92FF920F9382
:100D50001F932F933F934F935F936F937F938F9343
:100D60009F93AF93BF93EF93FF93DF93CF930F9234
:100D7000CDB7DEB71092E9008091E80083FF39C15A
:100D80002091F1003091F1008091F100C82EDD2416
:100D90004091F100942F80E0C82AD92A0091F100F7
:100DA00010E04091F100942F80E0082B192B609106
:100DB000F100A091F10082EF8093E800363009F055
:100DC00059C08BE790E09C0125503040FC013797DB
:100DD000459154914C155D05F9F4F90145915491F3
:100DE00040175107C9F42E5F3F4FF9018591949147
:100DF0002E5F3F4FF9012491462F50E07A2F60E09B
:100E0000462B572B4F3F510519F010F04FEF50E094
:100E1000421750F4242F08C00796295F3F4FF0E097
:100E20008C3A9F0799F6E5C0AEEF4091E80050E09C
:100E3000BA016570707061157105B9F342FDDCC0CF
:100E4000322F213208F030E2AC01632F07C0FA01E3
:100E50004F5F5F4FE491E093F10061506623B9F773
:100E6000830F911D231BA093E8002223F1F630325B
:100E7000E1F2C2C0353049F48EEF8093E8009CDE89
:100E80008C2D80688093E300B7C0393031F5222380
:100E900009F069C0C09249028EEF8093E80041E0FA
:100EA00085EA90E04093E900FC010196E491E0932B
:100EB000EB00EE2369F09C012F5F3F4FFC01849112
:100EC0008093EC00C9010196F90124912093ED0073
:100ED0004F5F453039F78EE141C0383039F4203862
:100EE00009F041C069DE8091490261C03323A9F451
:100EF000298362DE2981223851F40093E900909120
:100F0000EB0081E095FF80E01092E90001C080E0F5
:100F10008093F1001092F10068C0313011F033304D
:100F200011F5223001F5C114D104E9F4402F4F77B7
:100F3000842F81508430B8F48EEF8093E800409382
:100F4000E900333009F455C089E18093EB0081E07A
:100F500090E002C0880F991F4A95E2F78093EA005B
:100F60001092EA0049C00115110509F042C0213A6A
:100F700009F5313089F420DE809141028093F1003F
:100F80001092F100E2E4F2E081918093F10022E01E
:100F9000E834F207C9F729C0323021F40DDE809120
:100FA0002F0205C0333029F507DE8091300280938F
:100FB000F1001BC02132E9F4393061F48091E8007E
:100FC00082FFFCCF8091F100809348028BEF8093E9
:100FD000E8000BC03A3029F4D0922F0210924A0256
:100FE00004C03B3031F4C09230028EEF8093E800B1
:100FF00003C081E28093EB000F90CF91DF91FF91CE
:10100000EF91BF91AF919F918F917F916F915F9180
:101010004F913F912F911F910F91FF90EF90DF9093
:10102000CF900F900FBE0F901F901895F894FFCFA0
:10103000352B697D291E1404686D1F1A161B1D208F
:1010400008070667211509196522170A0577231C69
:101050000B112C24180D107F250C0E366B26120F49
:101060003738271333316E2D2F34302E28002B00C4
:101070002500250025002004400802290029002918
:101080000023002600290023002600230023002639
:101090000023000801100104201010042080803576
:1010A0002B697D291E1404686D1F1A161B1D20084C
:1010B000070667211509196522170A0577231C0BF6
:1010C000112C24180D107F250C0E366B26120F37AD
:1010D00038271333316E2D2F34302E462B697D7B0C
:1010E0003A0000686D3B000000003C000000673DD6
:1010F000000000653E357600773F79282A7C404A1B
:10110000504C7F415251497E424D4F0000434B4E5F
:10111000007A4429484745352B697D291E14046807
:10112000021F1A161B1D20080706672115091965DD
:1011300022170A052C231C0B112C24180D107F25B7
:101140000C0E366B26120F373827133331022D2F32
:1011500034302E010001FFFFFFFFFFFFFF01FF7D85
:0211600001008C
:00000001FF
